:020000040020DA
:1000000020140020C9102000633621006136210031
:1000100061362100613621006136210000000000B8
:100020000000000000000000000000006136210018
:1000300061362100000000004D3E200011372000F5
:10004000353C20008D3C2000E93C2000453D20004F
:1000500000000000A1442100A744210061362100D6
:1000600061362100000000000000000000000000D8
:1000700000000000000000006136210000000000C8
:100080000000000000000000613621006136210000
:100090006136210061362100613621006136210080
:1000A0006136210061362100613621006136210070
:1000B0006136210061362100613621006136210060
:1000C0006136210061362100613621006136210050
:1000D0006136210000000000000000000000000068
:1000E0000000000000000000000000000000000010
:1000F0000000000000000000594720006947200070
:1001000000000000000000000000000000000000EF
:1001100000000000000000000000000000000000DF
:1001200000000000000000000000000000000000CF
:1001300000000000000000000000000000000000BF
:1001400000000000000000000000000000000000AF
:10015000000000000000000000000000000000009F
:10016000000000000000000000000000000000008F
:10017000000000000000000000000000000000007F
:10018000000000000000000000000000000000006F
:10019000000000000000000000000000000000005F
:1001A000000000000000000000000000000000004F
:1001B000000000000000000000000000000000003F
:1001C000000000000000000000000000000000002F
:1001D000000000000000000000000000000000001F
:1001E000000000000000000000000000000000000F
:1001F00000000000000000000000000000000000FF
:1002000000000000000000000000000000000000EE
:1002100000000000000000000000000000000000DE
:1002200000000000000000000000000000000000CE
:1002300000000000000000000000000000000000BE
:1002400000000000000000000000000000000000AE
:10025000000000000000000000000000000000009E
:10026000000000000000000000000000000000008E
:1002700061362100D945200029462000F53D2000A7
:10028000794A2000D53720006136210000000000A7
:100290002DE9F04F016C9BB0044692469B46279D8A
:1002A00041B1436C01229A404B608A6011F00CFE10
:1002B00000232364BBF1000FD94633DB00232B60FE
:1002C000A54B1A4609EA0303934214D050465946F7
:1002D0000022002312F08AFE804648B3269E289D05
:1002E00001233360002D00F0CA809C48286001384B
:1002F0001BB0BDE8F08F269D42F20F732B60BAF160
:10030000000F00F0A5809648289E002EF0D0C378FC
:10031000002B00F0B68000F10803289D2B601BB075
:10032000BDE8F08F01232BF000492B60CB46C7E7D7
:1003300019AA18AB8DE80C00204652465B4612F015
:1003400049F85FEA19550A9040F08B80189F199D73
:100350006FF482633D449D42C0F295821F3305F2E3
:1003600012425B1B09FA03F32AFA02F243EA020083
:1003700012F05EFB0126013DB846A1F1F871169618
:100380000022784B12F016FA6DA3D3E9002312F085
:10039000C5FB6DA3D3E9002312F00EFA06462846EA
:1003A0000F4612F055FB6AA3D3E9002312F0B6FB07
:1003B00002460B463046394612F0FEF906460F4615
:1003C00012F046FE3946079000223046002312F014
:1003D00017FE002840F02982079E162E00F2228286
:1003E0006149524601EBC6015B46D1E9000112F0BA
:1003F00025FE002800F04C82013E079600260E964E
:10040000C5EB0805013D069500F1268200250895FB
:10041000079E002EC0F21782069D0D9635440026D9
:1004200006950C96249D092D2DD8052DC4BF043D9D
:100430002495249EC8BF0025A6F10203D8BF01253C
:10044000032B22D8DFE813F0B7039E02C0039A04FF
:10045000464A434BC9F3130000280CBF1046184608
:1004600052E7CBF3130343F07F51CDF85880504649
:10047000A5F2FF3541F44011DDF8608080E73C488B
:1004800036E7C31C49E70025249500256564294605
:10049000204611F0F3FC4FF0FF3901260990259515
:1004A0002064CDF83C900B96199B002BC0F2D280B3
:1004B000079E0E2E00F3CE802B4B03EBC603D3E931
:1004C0000001CDE9040125990029C0F28083DDE90E
:1004D00004235946504612F04BFC12F0B9FD054674
:1004E00012F0B6FADDE9042312F018FB02460B46BF
:1004F0005046594612F05EF9099A05F13003B9F1F8
:10050000010F06460F46137002F1010B64D0002262
:10051000184B12F003FB0022002306460F4612F090
:1005200065FD002840F08180DDF82480099DC844E5
:10053000DDE904AB05F10209039428E0AFF3008084
:1005400061436F63A787D23FB3C8608B288AC63FD9
:10055000FB799F501344D33F0000F07FC18B2100F3
:10056000E08B21000000F83FD8872100D48B2100C8
:10057000C08B21000000244012F0D0FA002200239A
:1005800006460F4612F032FD002840F0C183524665
:100590005B463046394612F0EBFB12F059FD05463A
:1005A00012F056FA52465B4612F0B8FA02460B4673
:1005B0003046394612F0FEF805F1300EC14509F813
:1005C00001EC4C4606460F464FF00002A74B09F1DE
:1005D0000109D1D1A346039C32463B4630463946F9
:1005E00012F0EAF806460F463246DDE904013B46C2
:1005F00012F006FD40B9DDE9040132463B4612F037
:10060000F5FC90B1EB0710D51BF8015C099A05E0E9
:100610009A4200F0298413F8015C9B46392D0BF1B6
:10062000FF33F5D06A1CD2B21A7020460A9911F035
:100630004BFC079E269D731C289E00228BF80020F1
:100640002B60002E00F025830998C6F800B01BB07F
:10065000BDE8F08F0B9D002D00F00381249E012E3C
:1006600040F3DC820C9E09F1FF37BE42C0F2898361
:10067000F71BB9F1000FC0F28784089D4B46089E16
:1006800020461E440896069E01211E44069611F03F
:10069000BDFC064665B10698002809DD03460899A9
:1006A000AB42A8BF2B46C91AC01A0891ED1A069092
:1006B0000C9A002A1DDD0B9B002B00F05883002FA5
:1006C00011DD31463A46204611F048FD06463146D6
:1006D0000A9A204611F0A4FC0A998046204611F09F
:1006E000F3FBCDF82880DDF830E0BEEB070240F0E8
:1006F0008F822046012111F089FC80460D98002848
:1007000005DD414620460D9A11F028FD80462499CA
:10071000012940F3C18200270D98002840F0AF82E4
:100720000120069B034413F01F0300F0A180C3F1D6
:100730002002042A40F3B7840899069AC3F11C03E7
:1007400019441A4408911D4406920899002905DDB0
:100750000A99089A204611F04FFD0A90069A002A3D
:1007600004DD4146204611F047FD80460E9B002BDC
:1007700040F06A82B9F1000F40F3A6820B9800287E
:1007800040F088800B9D0A9FDDF824B006E03946D2
:1007900020460A22002311F0A1FB074638464146B5
:1007A00011F09EFA30300BF805000135A945EEDC5A
:1007B000DDF824B082460A97B9F1010FACBFCB44F3
:1007C0000BF1010B00250A990122204611F014FDBE
:1007D00041460A9011F06EFD002840F309831BF892
:1007E000012C099905E0994200F08B8213F8012C45
:1007F0009B46392A0BF1FF33F5D001321A7041467E
:10080000204611F061FB002E3FF40FAF2DB1B54231
:1008100003D02946204611F057FB3146204611F0FF
:1008200053FB02E701260E96EAE5079812F010F94D
:1008300032463B4612F0DAFB00287FF4CDAD079E2E
:10084000013E0796C8E5079E089DAD1B08957542B9
:1008500000260C950D96E5E56D4200260895069656
:10086000D6E50C9F089D0B9E14E700BF00002440B6
:100870001C23DDF820E006989E441844CDF820E0C3
:100880001D44069061E7A748401B0AFA00F06FE597
:100890000E90B5E5002D05DD31462A46204611F0C3
:1008A000ABFC0646002F40F0E9823746099D0998C7
:1008B0004D4408950AF001050B95DDF82890451C7C
:1008C0000AE011F00BFB394606460A2220460023B7
:1008D00011F004FB074601354146484611F000FA85
:1008E00031468346484611F0E5FC414603903A46BE
:1008F000204611F003FDC268691E03460BF1300A61
:100900000691002A40F0938119464846029311F05F
:10091000D1FC029B024619462046029211F0D4FAFD
:10092000029A2AB9249B1BB90B98002800F09383E4
:10093000039B002BC0F2348205D1249818B90B997F
:10094000002900F02D82002A00F3AC82DDF820E0BF
:1009500005F801AC7545AB4600F0B48249460A2261
:100960000023204611F0BAFABE42814631462046A5
:100970004FF00A024FF00003A3D111F0AFFA064680
:100980000746A8E700260B96079EDDF894E0B644DC
:100990000EF10109B9F1000FCDF83CE04E4640F3ED
:1009A00050810021172E61640AD9012204235B00C3
:1009B00003F11400B042114602F10102F7D961645B
:1009C000204611F05BFA0E2E099020643FF66CADC4
:1009D000002D3FF469AD079DCDE912AB002D40F32A
:1009E0001C82514B05F00F0203EBC2032D11D3E91A
:1009F0000067EB0640F1CD814C4B50465946D3E998
:100A0000082312F0B5F9CDE9100105F00F054FF0FC
:100A100003088DB1DFF814A130463946EE0705D53D
:100A2000DAE9002308F1010812F078F86D100AF1F4
:100A3000080AF3D106460F46DDE9100132463B466F
:100A400012F096F982468B460E9D45B150465946A6
:100A50000022374B12F0D4FA002840F0AA82404618
:100A600011F0F6FF52465B4612F058F80022314B67
:100A700011F0A2FE0646A1F15077B9F1000F00F087
:100A80005A81079DC84617950B9D002D00F02382C3
:100A9000254B002003EBC80353E90223264912F03B
:100AA00067F932463B4611F085FECDE91001594603
:100AB000504612F0CDFA054611F0CAFF02460B4629
:100AC0005046594611F076FE3035099ECDE90401B5
:100AD000DDE90423DDE91001EDB2357006F1010B0B
:100AE00012F0ACFA002840F0AB82DDE904230020CC
:100AF0000F4911F05FFE02460B46DDE9100112F0CE
:100B00009DFA002840F0A282B8F1010F40F38181E4
:100B1000B044CDF85090A246C146DDE90467DDE956
:100B2000104519E0EEFBFFFFD8872100A0882100C7
:100B30000000F03F00001C400000E03F0020A849FA
:100B400011F038FE22462B4612F05AFA002840F0E7
:100B50007B82CB4500F05A81204629460022A14BDA
:100B600011F0DCFF00229F4B04460D46304639460B
:100B700011F0D4FF0F46064612F06AFA804611F0D3
:100B800067FF02460B463046394611F013FE08F166
:100B900030085FFA88F822462B460BF8018B064690
:100BA0000F4612F02DFA32463B460028C6D0179E5B
:100BB0005446079639E500260B96259800283CDD1B
:100BC00006460F908146ECE601260B96F5E7B9F153
:100BD000000F3FF77CAC40F0C680DDE90401002245
:100BE000814B11F09BFF52465B4612F01DFAC8463E
:100BF0004E4600287CD0259DDDF824B0ED430795B6
:100C00004146204611F060F9002E7FF406AE0CE557
:100C10000A99204611F0A2FA0A906AE5169D002D65
:100C200000F0B88103F233430C9F089D27E501468D
:100C3000204611F049F901227AE6012625960F9601
:100C4000B14600216164BBE60A98414611F032FBCF
:100C50000028BFF68FADDDF81CE00A990EF1FF3ECB
:100C600020460A220023CDF81CE011F037F90A9043
:100C70000B98002840F00982DDF83C907AE5D8F81E
:100C8000103008EB8303186911F072F9C0F12000ED
:100C900047E50998FFF72CBBBAF1000F7FF43BAD95
:100CA000CBF31303002B40F07C812BF000473F0D6A
:100CB0003F05002F3FF430AD089A069B0132013307
:100CC00008920693012727E5249902297FF756AD5C
:100CD000B9F1000F8FD141464B460522204611F055
:100CE000FDF8804641460A9811F0E4FA002882DDBA
:100CF000079D312301350795099D2B7005F1010BE7
:100D00007EE7079809993123013007900B7076E54B
:100D1000A346039C89E4404611F09AFE02460B4626
:100D20005046594611F0FAFE0022304B11F044FDB6
:100D30000646A1F150775046594600222A4B11F041
:100D400039FD32463B4682468B4612F077F9002841
:100D500040F0BD80324607F100435046594612F03C
:100D60004FF9002855D04FF00008464643E70A994E
:100D70000C9A204611F0F2F90A90BAE401260B967B
:100D800002E60C9D0D9E7B1B1E440C970D960027C2
:100D90006FE4DDE912014FF00208CDE9100138E6F9
:100DA000002ACDF82890D94611DD0A990122204663
:100DB00011F022FA41460A9011F07CFA002840F323
:100DC0005D81BAF1390F00F01B8109F1310A069BF0
:100DD000354683F800A003F1010B3E460FE500BF46
:100DE0000000F03F000024400000144000001C40C0
:100DF00003D11AF0010F7FF4F2AC5B4613F8012C1B
:100E00009B46302A03F1FF33F8D0F8E4DDF8509028
:100E10005446DDE912ABFFF747BB079E7542002D34
:100E200000F0C280A34B05F00F0203EBC203D3E92D
:100E30000023DDE9120111F071FE2D1182468B466F
:100E400000F02E819C4E4FF00208EA0705D5D6E946
:100E5000002308F1010811F061FE6D1006F108068B
:100E6000F3D182468B46EFE5079E099D30222A701A
:100E70000136312207961A70FFF7D7BB71682046FA
:100E800010F0FCFF336905469A1C920006F10C0134
:100E90000C300EF0F3FC20462946012211F0ACF98B
:100EA000074603E5BAF1390FCDF8289000F0A88085
:100EB000069D0AF101032B703546069E06F1010BD3
:100EC0003E469CE43546CDF828903E467BE44FF004
:100ED000000846460CE7774908F1FF3501EBC501EC
:100EE00032463B46D1E90001109511F017FECDE9DD
:100EF00014015946504612F0ABF8054611F0A8FD12
:100F000002460B465046594611F054FCDDF824E0E9
:100F10003035B8F1010F06460F468EF800500EF13D
:100F2000010B1ED0099D6B1E03EB080A0022634BC8
:100F300011F0F4FD0F46064612F08AF8804611F0D3
:100F400087FD08F1300802460B463046394611F05D
:100F500031FC05F8018F5545E8D1109D06460F4636
:100F6000AB440022564BDDE9140111F025FC32465A
:100F70003B4612F045F800284DD0179E099A079677
:100F80001BF8015CFFF74ABB089E0023C9EB06056E
:100F9000FFF775BB189B0C9FC3F13603089DFFF745
:100FA0006EBB5746FFF7B8BBDDE912AB4FF0020846
:100FB0004AE5B9F1000F3FF4AEAE0F9E002E7FF769
:100FC00028AF00223D4B5046594611F0A7FD8246FE
:100FD00008F101008B4611F03BFD02460B465046DE
:100FE000594611F09BFD0022364B11F0E5FB079DA1
:100FF0000646013DA1F150771795DDF83C8043E5A9
:101000003546069B069E3922327003F1010B3E469F
:101010000999FFF7EEBBDDE914230020284911F000
:10102000C9FB32463B4612F009F800283FF4F1AE06
:101030005B4613F8012C9B46302A03F1FF33F8D0AE
:10104000179D0795FFF7F1BA45465446179E099A32
:101050000796FFF7E3BABAF1390FCDF82890CFD051
:10106000039B3546002B069EC8BF0BF1310A86F85C
:1010700000A006F1010B3E46FFF7C1BB7FF4A7AE0F
:101080001AF0010F3FF4A3AE9BE6314620460A2238
:101090000023DDF83C9010F021FF0646FFF76ABB05
:1010A0004FF00208D0E43FF450ABC3F13C03FFF72C
:1010B000E0BB00BFD8872100A088210000002440A9
:1010C0000000E03F00001C4008B50D4BFF221A60F5
:1010D00000230C4A0C499818884204D20B495958ED
:1010E00099500433F5E70A480A494FF00002884254
:1010F000B8BF40F8042BFFF6FAAF02F0B3F8FEE7F2
:10110000B4200D40400000200D0C00202F9A21003B
:10111000100C0020E244002010B5038804463BB9BF
:10112000054813F0EDF900F0C9FA044813F0E8F9A6
:1011300000232380032010BDFC8B21000F8C210095
:10114000014813F0DDB900BF258C2100014813F0E0
:10115000D7B900BF398C210008B5024B80001B684D
:10116000984708BD8404002037B502F09FFA054671
:1011700002F09CFA084C00F07F00009020212046ED
:10118000064AEB0913F0E8F90548214603B0BDE82B
:10119000304003F09DBC00BF9C350020648C2100D2
:1011A0006C8C210010B504462146064803F090FCE3
:1011B000054B06491B682246D8680DF04DFC0DF022
:1011C000ADFA00BF718C2100500600203C95210033
:1011D00008B511460EF0A8FC10B90248FFF7E2FF6F
:1011E00008BD00BF888C210010B5044620B9064810
:1011F00040F2AF4104F0ACFB20460EF015F810B9F8
:101200000248FFF7CFFF10BDB68C2100D48C21001F
:101210002DE9F041069E1F46731E033305460C461A
:10122000904604D8194840F24F6104F091FB002C1D
:1012300001DBBC4204DD15484FF4CA6104F088FBB1
:1012400008EB840255B90134BC4203D1D6B1600128
:10125000BDE8F08152F8045F7540F3E7684228402A
:10126000002310F07F4F02D100020833F9E7002875
:1012700002DB40000133FAE7C3EB441404F11F0022
:10128000BDE8F0814FF0FF30BDE8F081B68C210061
:1012900010B5044620B90A484FF4036104F058FB26
:1012A000002014F07F4F02D124020830F9E7002C0F
:1012B00002DB64000130FAE7C0F1200010BD00BF7E
:1012C000B68C21002DE9F04780460C4617460026D3
:1012D000002C40D03D68FA68C5F1200C24FA0CF0CF
:1012E00004FA05F51FFA82F91FFA80FA030C09FBCC
:1012F0000AF109FB03F9120C534302FB0A9202EBB9
:10130000114289B24A4501EB024138BF03F58033EF
:10131000441C491944EB12441C447B6803FB1455DC
:101320008D4294BF00210121641A494219400D44A5
:101330009D4224BFC3EB0505013415FA0CFC04D013
:10134000064840F6610104F003FB3B68DD4008F805
:1013500006500136BCE73046BDE8F087B68C210068
:1013600070B50B680546D3F8A800174B01301B6811
:101370000C46984723682146D3F89C300646984788
:10138000236829461148D3F8A82003F0A1FB0025C3
:101390002368D3F8A8309D420EDA0D48715D03F042
:1013A00097FB2368D3F8A830013B9D4202DA2C203A
:1013B00013F08DF80135EBE7064813F0A1F8064B62
:1013C00030461B68984770BD20060020278D2100FD
:1013D000418D2100488D21002406002070B516465D
:1013E00004460D46FFF7C0FE094813F089F8204671
:1013F000D6F8EC1012F038F92946204615F06DF9B0
:10140000FFF7B2FEBDE87040024813F079B800BFA4
:101410004B8D2100728D210038B50D4604462A46B9
:1014200000682449FFF7DAFF21682348FFF798FF97
:1014300023682A4698682149FFF7D0FF23682A4687
:1014400098681F490830FFF7C9FF23682A46986843
:101450001C491030FFF7C2FF23682A4698681A49D2
:101460001830FFF7BBFF23682A46986817492030D9
:10147000FFF7B4FF23682A46986815492830FFF71C
:10148000ADFF23682A46D8681249FFF7A7FF6068B6
:101490002A461149FFF7A2FF60682A4608300F4923
:1014A000FFF79CFF60682A4610300D49BDE83840C0
:1014B000FFF794BFE00B0020998D2100C40A0020A3
:1014C000DA0A0020F00A0020060B00201C0B002086
:1014D000320B0020CA0B0020880B00209E0B00203E
:1014E000B40B0020F8B5124E074633680C20069D59
:1014F0009847D5F814320446581C3268C00090470B
:10150000264646F8040B0B4803F0E2FA30460A4937
:101510002A4612F097F9206808492A46FFF75EFF2D
:101520002068074908302A46FFF758FF3C60F8BD9D
:10153000200600209E8D2100480B0020720B002009
:10154000F60B00202DE9F041134C8046236808205B
:101550000E4698472368054610209847286007469E
:10156000D6F81002236800019847B860D6F8140234
:101570002368C0009847D6F814022368C0002F687B
:101580009847F860D6F80C022368C0009847686056
:10159000C8F80050BDE8F081200600202DE9F04F8A
:1015A00089B001929B46129AD1F810320C4692FBF8
:1015B000F3F503FB1528DDF84CA00646DDF8549042
:1015C00004F1F407FFF7D0FD384812F099FF02A8A4
:1015D000394612F049F8149BD9F808106A1C03EB3D
:1015E000C20202A8234601EBC80112F0F4F8DAF8AF
:1015F000001006A812F038F8514606A812F03EF87E
:101600004FF0000ADA4527DA019A52F82A30002B07
:1016100004DA5146264803F05BFA44E0D4F80C2281
:101620009342F6DCD4F8102293FBF2F1A94210D1D8
:1016300002FB153343450CD008A8D31A50F8081DF7
:10164000D9F8082003EB080E02EBCE020B6B014623
:1016500098470AF1010AD5E7FFF786FD154812F011
:101660004FFF04A8394611F0FFFF149A234604A83F
:1016700006A912F0B0F83046394611F0F5FF33688C
:1016800002A9DB6D04AA30469847FFF76DFD0A48B2
:1016900012F036FF06A811F0ECFF02A811F0E9FFE6
:1016A00004A811F0E6FF09B0BDE8F08FDD8D210040
:1016B0000D8E2100338E2100638E21002DE9F04331
:1016C000504BD5B01C6804AF20460EF0A9FE214651
:1016D000024607F114000EF0D1F8102001F0A4FD2D
:1016E000FFF742FD0322384607F1140112F091F88A
:1016F00007F11401444803F0EBF93B684348D3F881
:101700001422D3F80C12D3F8103203F0E1F9381D8B
:101710003968FFF717FF78683968FFF77DFE3C48A6
:1017200012F0EEFE02252E463B68D3F80C329E42A4
:101730005DD8013DE9465FD0B3000833ADEB030D42
:10174000344803F0C5F90DF11008002448F824408E
:1017500021463148013403F0BBF9B442F6D12F4899
:1017600012F0CEFE3B68414600937B68022207F1EF
:101770000800FFF7B7FE102001F05EFD00222849A7
:1017800007F1140003F0C8F97B6807F114005968E9
:10179000FFF7E6FD00247B6800945A6807F10C000F
:1017A0000192BA68126802921B6842460393396834
:1017B0000223FFF7F3FE1B4807F10C01FFF7D0FDF2
:1017C000B86807F10C0150F8043FD3F898309847F7
:1017D00018B11548214603F07BF907F10C0011F010
:1017E00048FFB8680DF028FD0426CD469CE7102080
:1017F00001F01AFDFFF7B8FC07F5A277BD46BDE87A
:10180000F08300BF78040020938E2100A28E210077
:10181000D58E2100E68E2100038F210055942100F2
:10182000078F21001B8F2100388F21002DE9F04107
:10183000B2F1000806460F461C4604DC0A4840F296
:101840003D5104F085F8002357F82350651946F8F8
:10185000235003F1010334BF002401244345F3DB8B
:101860002046BDE8F08100BFB68C21002DE9F04193
:10187000069C0746A2420E461546984604DA0C48D6
:1018800040F2635104F064F823463846314642463C
:1018900012F013F8A542034607DDA10078182A1BB1
:1018A0003144BDE8F041FFF7C1BFBDE8F08100BFA2
:1018B000B68C21002DE9F843B2F1000907468846AD
:1018C0001D4604DC0B484FF4AE6104F041F80024DF
:1018D00058F82460AE42C5EB060547F8245004F1E1
:1018E00001042CBF002001204C4501DA0546EFE73A
:1018F000BDE8F883B68C21002DE9F04145684E091A
:10190000002DB8BF6D4201F01F014FF00108AE423B
:101910000446876808FA01F804DB10484FF48D513B
:1019200004F016F807EB86000146AA1B4346FFF7B2
:10193000C1FF20B1094841F2A31104F009F805F1F3
:101940008043013B57F82330002B08BF013D6368FB
:10195000002BB8BF6D426560BDE8F081B68C2100F8
:101960002DE9F041069C0746A2420E4615469846D0
:1019700004DA0C4840F2975103F0EAFF2346384658
:101980003146424611F0B1FFA542034607DDA100F2
:1019900078182A1B3144BDE8F041FFF78BBFBDE842
:1019A000F08100BFB68C21002DE9F843151E80465A
:1019B00089461F4604DC174840F2A45103F0C8FFD3
:1019C0000024390C204659F804201FFA87FC96B2EF
:1019D000120C0CFB06F30CFB02FC01FB06C64A438F
:1019E00006EB13469BB20344664503EB06434FEAFE
:1019F000164638BF02F5803283422CBF3046701C39
:101A0000013D48F80430104404F10404DBD1BDE882
:101A1000F88300BFB68C21002DE9F74F0C9F9A4642
:101A20003B689146013A0E46B2FBF3F103FB1122EB
:101A3000347805460023501C934205D0F1184978AC
:101A400001330AFB0414F7E72C60003418BF0124AB
:101A5000484527D216F800803A683118012393428E
:101A600003EB000B05D211F803E001330AFB08E891
:101A7000F5E7224629467B682846FFF795FF224670
:101A80008446294628464346CDF804C0FFF7CEFEDB
:101A9000DDF804C010EB0C001CBF45F82400013435
:101AA0005846D5E704D0044840F6E70103F050FF5C
:101AB000204603B0BDE8F08FB68C21002DE9F84335
:101AC000161E05468846994604DC174840F2BB516D
:101AD00003F03EFF4FEA1943002058F8042B1FFA89
:101AE00089F197B2120C07FB01F4514307FB03176E
:101AF0005A4307EB1447A4B28F4204EB074429680A
:101B000004444FEA174738BF02F5803284422CBFA5
:101B10003846781C641842EB0000013E45F8044B3F
:101B2000DBD1BDE8F88300BFB68C21002DE9F84376
:101B3000151E04460F46984604DC194840F2D5515C
:101B400003F006FF4FEA1849002057F8042B1FFA4C
:101B500088F396B2120C06FB03FC534306FB0936CE
:101B600002FB09F206EB1C461FFA8CFC21680CEB09
:101B7000064C9E4284444FEA164638BF02F5803236
:101B8000CCEB010384452CBF3046701C8B4288BFD0
:101B90000130013D104444F8043BD6D1BDE8F88340
:101BA000B68C21002DE9F843089E0546B2428846CE
:101BB0001446994604DA144840F2ED5103F0C8FE89
:101BC000002E04DC104840F2EE5103F0C1FE28461E
:101BD00041462246D9F80030FFF7E6FEA70045F857
:101BE0002400013E002E05F1040508DD284641468B
:101BF000224659F8043FFFF761FFE851F1E73D4401
:101C000055F8040CBDE8F883B68C21002DE9F843A3
:101C1000151E06460F461C4604DC194840F21661A4
:101C200003F096FE1CB9164840F2176104E01F2C21
:101C300004D913484FF4C36103F08AFEAB00F918CE
:101C40001E4451F8043DC4F1200723FA07F8A340CD
:101C500030462A46013A0AD051F804CD2CFA07F949
:101C600043EA090340F8043D0CFA04F3F2E7013DAE
:101C7000A6EB850646F8043C4046BDE8F88300BF65
:101C8000B68C21002DE9F74F1E688046894617461D
:101C90001D465EB11046FFF75FFA49463A462B688B
:101CA0000646FFF7B3FFB146044600E03446B900EC
:101CB000D5F80CA089446B68414401914FEA1A4B56
:101CC0003A46CDF800900021002A3EDDA0B24FEA4E
:101CD000144C1FFA8AF707FB00F907FB0CF70BFB04
:101CE000007000EB1940B842009F0BFB0CFC0F4446
:101CF00057F8047C1FFA89F909EB004938BF0CF545
:101D0000803C013419EB070944EB1040604403FBAD
:101D100010774F4594BF4FF000094FF00109C9EB10
:101D20000000C9F1000909EA03043C449C4224BFB5
:101D3000C3EB04040130B8F1000F03D0019F0F443E
:101D400047F8040C013A0439BEE72B6823B1054B70
:101D500030461B6800219847286824FA00F003B039
:101D6000BDE8F08F800400202DE9F843171E0646D9
:101D70000D461C4604DC164840F2356103F0E8FDD0
:101D80001CB9134840F2366104E01F2C04D91048F6
:101D900040F2376103F0DCFD2B68C4F1200103FA47
:101DA00001F8E340284632463D46013D0AD050F84E
:101DB00004CF0CFA01F949EA030342F8043B2CFA78
:101DC00004F3F2E7013F46F827304046BDE8F883C8
:101DD000B68C21002DE9F04F8FB0189C0790002C95
:101DE000039117469846DDF8649004DCB14840F250
:101DF000CF7103F0ADFDA74204DAAE484FF4FA61AB
:101E000003F0A6FD012C08D1039907983A464B46EA
:101E1000FFF738FF0399086008E2022C40F0CD80FC
:101E2000012F04DCA34840F2547103F091FD99E8BE
:101E30006000D9F80C20D9F8084004925DB138460A
:101E4000FFF78AF92B4603993A460890FFF7DEFE22
:101E5000089B824601E0039BAA4607F180410139B5
:101E60008A000498DDF81C90043253F82180023F68
:101E7000000C210C134491440297059006910A939B
:101E8000CDF824904FF0000BDDF810C01FFA8AF156
:101E90004FEA1A471FFA8CF20A9B02FB01F97A43B8
:101EA0005B4453F8080C059B5F4303FB012303EBE2
:101EB00019431FFA89F9934209EB034938BF07F523
:101EC000803719EB08094AEB13433B4406FB138A9E
:101ED000CDF82C90DDF818901FFA84F89FB2C6EB6D
:101EE0000A0A011BA04238BFAAF1010A08FB07F049
:101EF00009FB07F74FEA134C09FB0CF208FB0C7CBB
:101F00000CEB104C80B2BC4500EB0C40AAEB1C4A19
:101F100038BF02F58032DDF82CC0814238BFAAF10B
:101F2000010AC2EB0A02624534BF4FF000094FF0CC
:101F30000109C9F1000A0AEA04080F1A18EB070898
:101F40000AEA060A42EB0A0A0133B245C9EB030367
:101F50000BD301D8A04508D3C6EB0A0AA04538BF69
:101F6000AAF1010A0133C4EB0808079818B1099ACD
:101F70005A4442F8083C0299ABF1040B0139029132
:101F800082D5B5B1C5F1200418FA04F204D049484D
:101F900040F2737103F0DCFC0AFA04F428FA05F845
:101FA000454B08981B68002144EA08082AFA05FAFC
:101FB0009847039B83E8000538E104F1804B0BF15F
:101FC000FF3BD9F8042058F82B30CDF810B09A42D6
:101FD0004FEA8B0604D0374840F2DB7103F0B8FCBF
:101FE000043ED9F8082058F806309A4204D0314807
:101FF00040F2DC7103F0ACFCD9F80430002B04DBB8
:102000002C4840F2DD7103F0A3FCD9F800000590E4
:1020100038B103983A460146059BFFF7F7FD0546A0
:1020200000E0059DD9F80C10022C089104DC214831
:1020300040F2977103F08CFCA74204DA1D484FF47C
:10204000F36103F085FC049A58F8066058F82220E2
:10205000002A029204DB174840F29D7103F078FCDD
:1020600008986FF003036343000CC4EB0709099061
:102070000398CDF818904FEA1649CDF8289000EB58
:1020800087070B93029804F1FF398542CDF8309011
:1020900057F8043C12D1B34210D10B984146384452
:1020A00022464FF0FF33FFF741FD4FF0FF3957F85D
:1020B000045C9AE0B68C210080040020DDF82090BA
:1020C000A9B22A0C1FFA89F000FB01FA5043DDF88F
:1020D00024B0A4F1020C0BFB01010BFB02F201EB9B
:1020E0001A411FFA8AFA81420AEB014A38BF02F507
:1020F00080321AEB030A45EB11450298154400FBA8
:10210000153957F8081CDDF828B0C0EB0909CDF8DF
:1021100034C0A8B21FFA86FCB14238BFA9F1010948
:102120008A1B0CFB00F10BFB00F04FEA154E0BFB7A
:102130000EF30CFB0E0E0EEB114E89B2864501EB31
:102140000E41A9EB1E4E38BF03F580338A4238BFDB
:10215000AEF1010EC3EB0E03534534BF4FF000093F
:102160004FF00109C9F1000B501A02990BEA060A57
:102170001AEB000A0BEA010B43EB0B0B01358B4505
:10218000C9EB05090DD301D8B2450AD3029A09F16A
:102190000109C2EB0B0BB24538BFABF1010BC6EB2B
:1021A0000A0ADDF82CC04B46BC44604641460D9AF5
:1021B000CDF804C0FFF7BAFC82452CBF00230123F1
:1021C000C0EB0A0047F8080C9B45C3EB0B05DDF894
:1021D00004C00AD20C9B60466146424611F06DFB7A
:1021E000029B09F1FF391D440544079818B1DDF839
:1021F00018B040F82B900698043F013806907FF500
:1022000041AFDDF810900399059841F8295068B165
:1022100008462246059BFFF7A7FD38B105484FF455
:10222000FD610FB0BDE8F04F03F092BB0FB0BDE809
:10223000F08F00BFB68C2100F8B5041E0D4604DBFC
:10224000334840F27D6103F083FB230CE143B1FB93
:10225000F3F203FB1213A0B250431B046FEA1343C3
:102260006FEA0343834208D21B1902F1FF3105D202
:10227000834203D2911E234400E011461B1A1E0C18
:1022800001FB06361B04320C03F57F43501CFF3361
:1022900004FB1033B3EB064F24BF1B19104600EBB1
:1022A0000140A34224BF0130C4EB03037DB3DB43F1
:1022B0005B1907D3A3422ABFC4EB030300F1FF302D
:1022C00002381B1B1FFA85FC290C87B20CFB07F692
:1022D0004F43020C51430CFB027202EB1642BA420E
:1022E00038BF01F5803101EB1241CB180FD3B6B2E4
:1022F00006EB02421E1B71427141AA4298BF0021A7
:102300000138A34294BF0B4641F00103C01AF8BD47
:10231000B68C210038B504460D4621B90D4840F26F
:10232000D16103F015FB2A46002312F07F4F02D142
:1023300012020833F9E7002A02DB52000133FAE700
:1023400005FA03F0236060600021FFF775FFE0608D
:1023500038BD00BFB68C21002DE9FF4106460D4671
:1023600090461C4623B91C484FF4E66103F0F0FA8E
:10237000621E12EA04031FD12F6817403EB3012CDE
:1023800005D830462946424611F06AFA1FE06242FB
:10239000144014F07F4F02D124020833F9E7002CD7
:1023A00002DB64000133FAE7304629464246C3F1B6
:1023B0001F03FFF7D9FC0AE068462146FFF7AAFF92
:1023C0003046294642466B46FFF75CFC00E0384643
:1023D00004B0BDE8F08100BFB68C21002DE9F041CA
:1023E000161E04460D4605DC334840F2EF6103F04B
:1023F000AFFA2BE0012E04D1BDE8F0410968FFF7E8
:1024000089BF022E22D191E8600026B92A4840F205
:10241000DE6103F09DFA3246002312F07F4F02D1B5
:1024200012020833F9E7002A02DB52000133FAE70F
:10243000236033B1C3F1200225FA02F29E409D4091
:1024400016436660A5603046294630E006F18042BA
:10245000013A4FEA820855F82260A8F1040855F8BD
:10246000087026B9144840F2FC6103F071FA324654
:10247000002312F07F4F02D112020833F9E7002A3D
:1024800002DB52000133FAE7236063B1C3F120029B
:1024900045449E4027FA02F107FA03F355F8047CFD
:1024A0000E43D7401F436660A76030463946FFF7AA
:1024B000C3FEE060BDE8F081B68C210008B5034B97
:1024C00080681B680021984708BD00BF8004002079
:1024D00038B50B4B0129ACBF0D46012504461B68DE
:1024E0000021AA00806898476368A060002BB8BFED
:1024F0005B42AB42C8BF00232560C8BF636038BDE4
:102500007C040020F8B54C6816460268002CB8BF61
:10251000644294420F4604DD2146FFF7D9FF054689
:1025200000E085682CB92E60003618BF0126704285
:10253000F8BD012C08D1BB681B68B34204D2F61A5F
:102540002E604FF0FF30F8BD2846B968224633466A
:10255000FFF7B0F920B1054840F6FD2103F0F8F986
:1025600028462146BDE8F84011F08DB8B68C210010
:102570002DE9F3414C685568002CB8BF6442002D2A
:10258000B8BF6D42AC4206460F46886890469168D7
:1025900001D005DA24E0224611F07BF900281EDD87
:1025A00033689C4205DD30462146FFF791FF064621
:1025B00000E0B66800953046B9682246D8F8083081
:1025C000FFF7CEF920B1164840F63F3103F0C0F9CD
:1025D0003046214602B0BDE8F04111F054B81CD09D
:1025E00033689D4205DD30462946FFF771FF0646F8
:1025F00000E0B66800943046D8F808102A46BB6858
:10260000FFF7AEF920B1064840F6453103F0A0F9D6
:102610003046294611F037F8404202B0BDE8F0815B
:10262000B68C21002DE9F74F9A4656689DF8303058
:10263000044688461546019346B900B14660002518
:10264000B8F1000F6DD0C8F804506CE086EAE67966
:10265000A9EBE67948B10368994504DD4946FFF7DF
:1026600037FF074602E0876800E00746A96838465A
:102670004A465346FFF770FE5045054604D32C48A2
:1026800040F6995103F064F92B1C18BF0123002E6A
:102690009B46B8BFC3F1000BDBB1019B13B9002E01
:1026A00018DA04E0019B012B14D1002E12DB5CB17F
:1026B000384639464A460123FFF7B8F820B11C488E
:1026C00040F6A25103F044F9C5EB0A05CBF1000B2B
:1026D00000E01D46B8F1000F04D0D8F808301D60A6
:1026E000C8F804B0FCB109F18043013B57F823302E
:1026F000002B08BFA9F10109B9F1000F0AD009F1B7
:102700008043013B57F8233023B9094840F6AF51C5
:1027100003F01EF9002EB4BFC9F100034B466360FD
:1027200001E0404600E0284603B0BDE8F08F00BF5E
:10273000B68C21002DE9F04F1F465B6893B00D4623
:10274000044611469DF87080D2F804A013B975486C
:10275000FEF728FDBAF1000F08D108B1C0F804A0B7
:102760000020002D00F0D9806860D7E08AEAEA7284
:10277000A2EBEA7283EAE376A6EBE376B242059235
:1027800083EA0A092BDAB8F1010F0CD1B9F1000F75
:102790001CDB1DB128463A4611F03AFBECB1012092
:1027A0006060A36810E0B8F1000F0FD1B9F1000F1D
:1027B0000CDA1DB128463A4611F017FB6CB14FF008
:1027C000FF336360A36801201860A7E015B12846B5
:1027D00011F0B2F90CB10023636001209EE00BA858
:1027E00011F0CDF90D9B059A0793931B01330693C6
:1027F00034B1590108A811F0F2F80A9B049300E0E3
:102800000494BB680EA8194632460393FFF7E6FD11
:10281000022E039B12DD0E9A9AB13046FEF79CFC05
:10282000039B324619460E9B8346FFF7EFF950B1E2
:102830003D4840F2F97103F08BF804E04FF0000BD3
:1028400002E0934600E05B460EAA019200960498CF
:102850000799059AFFF7BEFABBF1000F04D0334B7E
:1028600058461B6800219847049A82B1069A02F1E3
:102870008043049A013B52F82330069A002B08BF8C
:10288000013AB9F1000F1346B8BF534209933146DC
:10289000079810F0F8FEBAF1000FB4BF43420346A8
:1028A00006460C93B8F1000F10D1B9F1000F20DAF1
:1028B000F8B124B108A80146012211F089FAC5B186
:1028C0000BA801463A4611F090FA12E0B8F1010F58
:1028D0000FD1B9F1000F0CDB58B124B108A80146A3
:1028E000424611F0FCF925B10BA801463A4611F019
:1028F0008FFA34B108A8214611F0E4F908A8FFF7CF
:10290000DDFD1DB10BA8294611F0DCF90BA8FFF77E
:10291000D5FD301C18BF012000E0284613B0BDE8EB
:10292000F08F00BFBE8F2100B68C210080040020F4
:1029300037B543680446002B04DC0A4840F658616A
:1029400003F006F8A268002100910B461068FEF71C
:102950005FFC0546214620462A4611F054FB2846D6
:1029600003B030BDB68C210013B513460C460222CD
:10297000009200212246FFF7DDFE38B1044840F600
:10298000645102B0BDE8104002F0E2BF02B010BDD9
:10299000B68C210013B513460C460222009200218A
:1029A0002246FFF73FFE38B1044840F6066102B008
:1029B000BDE8104002F0CCBF02B010BDB68C2100C3
:1029C0002DE9F04F5C6856688FB0002CB8BF6442A8
:1029D00002908A4691469B46002EB8BF76420CB9BB
:1029E000624836E02EB9029901238A684B60136071
:1029F000B8E09F680AA839462246FFF7EFFCDDF8E9
:102A00002880B8F1000F11D0002320460A93FEF76A
:102A1000A3FB3946224643460546FFF7F7F840B187
:102A2000534840F6DB7102F093FF02E03D46474613
:102A300000E02F4607A810F0C8FFD9F8043007A817
:102A4000002B514607DA5A4611F070FC002832D1AB
:102A50004848FEF7A7FB11F01FF9DDF820B0A345A9
:102A600009DB0AAA019200945A46002009992B46D4
:102A7000FFF7B0F9A346DAF80430002B16DA079B0B
:102A80009C4204DD07A82146FFF722FD00E00998DB
:102A9000CDF800B0294622460346FEF761FF20B17B
:102AA000334840F6F87102F053FFA346099859469F
:102AB00010F0E9FD089004A8012111F055F8013E3D
:102AC000731C002B2CDDD9F808304FF0200B53F885
:102AD00026304FF0004A039304A80146024611F045
:102AE000E6F9039B1AEA030F04D004A8014607AADB
:102AF00011F0DDF9059AA2420CDD0AAB019300202A
:102B000006992B460094FFF765F90698214610F0C8
:102B1000BAFD0590BBF1010B4FEA5A0ADCD1CEE7B2
:102B2000059AA2420EDB0AA90191002006992B46C4
:102B30000094CDF82880FFF74DF90698214610F053
:102B4000A2FD059027B10C4B38461B680021984721
:102B5000029804A911F0B6F804A8FFF7AFFC07A883
:102B6000FFF7ACFC0FB0BDE8F08F00BFDA8F21009B
:102B7000B68C2100F18F210080040020F0B50129DE
:102B800085B006460D4603DC2E4841F2513104E083
:102B9000242904DD2B4841F2523102F0D9FE746839
:102BA000002CB8BF6442002C49D0B76804F18043C0
:102BB000013B57F82300FEF76BFB631E082D00EB6B
:102BC00043100ED006DC022D3AD0042D12D1013074
:102BD000400835E0102D07D0202D0BD104300523FF
:102BE00005E00230032302E00330800828E0B0FB58
:102BF000F3F025E02046FEF7AFFA394622460646B6
:102C000010F02EFE29466846FFF784FB0025224679
:102C10006B4630463146FFF735F804F18043013BFF
:102C200056F823300135002B08BF013C002CEEDCA8
:102C3000054B30461B6800219847284600E00120DC
:102C400005B0F0BDB68C2100800400202DE9F04FC6
:102C50000E1EBABF7642DFF8D0A0DFF8D0A0012E5A
:102C600087B00446904602DD242E01DD53E00A269B
:102C700040463146FFF782FF24B9294B02301B68DA
:102C800098470446D8F8043083EAE377A7EBE37764
:102C90001FB93023237067703BE0002BBCBF2D238E
:102CA00023703046B4BF0125002510F0F7FC6319EE
:102CB000814640B118464946D8F808203B4610F0F6
:102CC00050FD46191BE0314604A8039310F00BFD9C
:102CD0003846FEF741FAD8F808103A46834610F015
:102CE000BFFD039B3146184600975B4604AA10F0CF
:102CF0001CFE0C4B46191B68584649469847B5427E
:102D000005D2635D1AF8033063550135F7E70023F8
:102D1000A355204600E0002007B0BDE8F08F00BFBB
:102D200084040020800400209590210070902100F0
:102D30002DE9FF4706460D4614463AB1931E222B55
:102D400004D9574841F2C63102F002FE554B2946DC
:102D500018689A460B4611F8019B00EB090252785D
:102D60001507F7D4B9F12D01D1F1000959EB01098B
:102D700003EB09059CB913F80930302B0ED16B78A1
:102D800003F0DF03582B02D10235102407E0422B59
:102D900019BF013508240235022400E00A24284620
:102DA0000DF03EFB404B002808BF01301B689847E0
:102DB000013D8046002715F8013F43B3DAF80020B3
:102DC0001A4452781207F6D4A3F13002D1B209297D
:102DD00001D813460BE0A3F16102192A01D8573B31
:102DE00005E0A3F14102192A94BF373B2346A342D1
:102DF00009D32E4B40461B6800219847002373607F
:102E00004FF0FF3049E008F807300137D3E720469C
:102E100010F044FC824690B100FB07F533681F3583
:102E20006D099D4204DD30462946FFF751FB00E065
:102E3000B06841463A46534610F064FC1AE00DF182
:102E4000080A5046214610F04EFC029B5D1E3D4490
:102E5000B5FBF3F533689D4204DD30462946FFF7A4
:102E600037FB00E0B068CDF800A041463A46234663
:102E7000FEF7D2FDA842044604DD094841F20D41A7
:102E800002F066FD094B40461B6800219847B9F1E6
:102E9000000F00D064427460002004B0BDE8F087E9
:102EA000B68C21004C060020840400208004002001
:102EB00038B505460020FFF7C9FE04460DF0B0FA0C
:102EC0002B460246012120460CF02CF9034B054607
:102ED0001B68204600219847284638BD8004002002
:102EE0002DE9F04F85B099460F9B824688461446DF
:102EF0000E9F109D13B13F48FEF754F9012A06D0EA
:102F0000531C04D03C4841F2464102F021FD7B1C99
:102F1000022B05D9384841F2474102F019FD04E07F
:102F20001FB9364B1F78C7F10107BC4214BF4FEAE7
:102F300049030023012C04D108F1FF3209FB02559B
:102F40005B4208FB09FC012F04BF09F1FF32AD18F9
:102F50000CF1030CDAF800204FEA9C0C94450BDDD1
:102F6000614650460293CDF804C0FFF7B1FA029BC8
:102F70008346DDF804C001E0DAF808B000242246F8
:102F80002646B8F1000F1CD0002100910099494558
:102F900013D02978501CD20001FA02F2042846EA24
:102FA000020604D14BF82460002601343046009A12
:102FB000ED1B013200920246E8E708F1FF381D449C
:102FC000DFE7002A0CBF2246621C624504D00A4893
:102FD00041F26D4102F0BCFC1EB1601C4BF8246054
:102FE00003E05846214610F04EFBCAF8040005B035
:102FF000BDE8F08FBA902100B68C2100D088210066
:103000002DE9F74F1C460D9B0746019192460C9EF9
:10301000DDF8389013B14648FEF7C4F8012A07D00E
:10302000B2F1FF3F04D043484FF4A45102F090FCAA
:10303000731C022B04D93F4841F2814102F088FC05
:103040003CB9D9F8043023B13A4841F2824102F048
:103050007FFCD9F80430002B60D083EAE37BABEB34
:10306000E37B0BF18043D9F80820013B52F8235051
:103070004FEA830825B92F4841F2964102F068FCD7
:1030800000232D0A03F1010201D01346F9E7A04401
:103090009844B8FBF4F82FB9274B04FB08F01B68E1
:1030A000984707461EB9254B1E78C6F10106B24562
:1030B0000CBF00206000BAF1010F03BF08F1FF331D
:1030C00004FB037340423B46012E04BF04F1FF3270
:1030D0009B18002211469246C24517D04FF0000CB3
:1030E000A4450FD039B95A4504DAD9F8081051F877
:1030F0002250013204211D7001392D0A0CF1010CFE
:103100009B1BEDE70AF1010A0344E5E75A4506D0A7
:10311000084841F2C54102F01BFC00E09846019BC3
:103120000BB1C3F80080384603B0BDE8F08F00BF94
:10313000BA902100B68C210084040020D0882100A0
:103140002DE9F8432F4C257820704540290618D5E5
:1031500010F0800F2C4E05D000F0FEFA2B4BD860FB
:1031600001230DE0F37863B1294FD7F80C8000F00C
:10317000F3FA264BDB68C3EB08084044F8600023F1
:10318000F3706A061CD523781F4E03F0400303F04A
:10319000FF0933B100F0E0FA1C4B186101233371D1
:1031A0000EE0337963B11A4FD7F8108000F0D4FAEB
:1031B000164B86F804901B69C3EB0808404438613D
:1031C000EB061AD52378104D03F0100303F0FF0827
:1031D00033B100F0C1FA0D4B586101236B710CE063
:1031E0006B7953B10A4E776900F0B6FA074B85F850
:1031F00005805B69FF1A384470612078BDE8F843A8
:1032000000F02AB8BC350020443900205039002095
:103210001039002008B500F017F8024B00221A7090
:1032200008BD00BFBC350020024B1B781843FFF7D8
:1032300087BF00BFBC350020024B1B7823EA00008B
:10324000FFF77EBFBC350020024B1A6842F0F00247
:103250001A60704700B40D40014B1860704700BF02
:10326000C0B30D40F7B500F069FC00F0A1FD00F01F
:10327000ADFC00F0F1F901F0B5FB11F0B9F900F087
:103280008FFDFFF7C7FF402011F0DFF802F0F0F9E3
:1032900000F040FC00F09AF9002000F0E1FA012073
:1032A00000F0DEFA4949002000F0C4FB02F03EFBCA
:1032B00011F0FCF8802011F0C8F8454811F020F911
:1032C000444811F01DF9444801F002FC434B444DC1
:1032D000186811F015F9434801F0FAFB424B00243D
:1032E000186811F00DF9414801F0F2FB404B2E46F1
:1032F000186811F005F9002002F044FB01F0C6F94E
:103300003C48002102F05AFA01F0DEFF684608212D
:1033100001F07AFB9DF807309DF8067043EA072715
:103320006B4603CB28603448696001F0D1FB315D06
:103330003248013401F0CCFB072C294DF7D1304E37
:10334000E979304801F0C4FBF46A4AF6CD31022035
:10335000A04739460320A0471A210120A04769460B
:10336000736B08220920984702F04AFB00F03EF9EF
:10337000254811F0C5F8254A2B6813606B68536027
:1033800002F0C0FC2248002102F018FA0021214876
:1033900002F014FA02F006F800F0DEF91E4B0122EA
:1033A00018601E4B1E481A7011F0EEF800F0B8FBC2
:1033B000202011F04AF800F0B9FB02F071F910F08A
:1033C000FF0FF8D101F064FAF5E700BFE9582000DB
:1033D000739121008D9121009D912100E4892100AC
:1033E000D0440020A4912100F0892100AB9121005C
:1033F0001C8A2100C8040020B2912100D091210034
:10340000AC892100D6912100DC9121008C3900206B
:10341000A8050020880400205039002044390020ED
:10342000C888210070B505880446772D30D07E2DE0
:1034300040D0002D4ED102F013F9294B1870294BC2
:103440001D601E463368284A264D52F823204AB193
:1034500026480021C1549368802098472A68013289
:103460002A60EFE7224A1370772321E01F4AD256E1
:10347000002A13DB1B4B1A6801321A60194B1C4AD5
:103480001B6812789342F1DB1A4B1B68002BEBD0C0
:10349000184A00231360134A1360EFE7104A002014
:1034A0001178114A52F8232002F05CF930B97E23DA
:1034B000238013E00A4B1B788B420FD1094B0B4A38
:1034C0001B68D15C01F07F01D1540A4B1A680132AC
:1034D0001A60CFE700230380032070BD012070BD78
:1034E000CC4400202014002098040020CD4400206B
:1034F000BD35002024140020094B1A780023934284
:1035000004DA084951F82310814207D1064A0748D6
:10351000D15C61F07F01D15402F068B90133EEE76C
:10352000BD35002098040020CD44002088040020F0
:1035300010B50446074811F06FF850B10548102146
:1035400011F058F8022C04D1BDE810400248FFF7F2
:10355000D3BF10BD28140020D488210008B5194B12
:1035600003211A68022022F008021A6053F8202C66
:1035700022F0080243F8202C53F81C2C22F00802F9
:1035800043F81C2C53F8182C22F0080243F8182C8E
:1035900053F8142C42F0080243F8142C53F8102C62
:1035A00042F0080243F8102C042200F00FFC022025
:1035B00000F0E2FA04480221032200F01BFB012084
:1035C00008BD00BF20B40D40313520000148002166
:1035D00011F010B828140020034B00221A601022AA
:1035E00043F8402C704700BF80C00D40054B1A685F
:1035F00042F020021A601A6842F010021A60FFF7C7
:10360000EBBF00BF00C40D40F8B500F0A5F8104EA8
:103610000022D6E90045A042294638BF691C0F4662
:10362000B64642EA0006CEE900670A49D1E900231E
:10363000121B63EB0503921943EB0703C1E9002357
:1036400001F076FF18B1BDE8F84001F001BFF8BD08
:10365000100C0020180C0020114B124A1A6053F86D
:10366000042C42F0050243F8042C53F8042C42F0D9
:10367000020243F8042C0C4B1A6842F001021A6053
:10368000A3F52123A3F6FC7300221A60042243F859
:103690000C2C012243F8082C0F22DA62704700BF7D
:1036A00014E000E047E8010008200D40034BD3E997
:1036B0000023100A40EA0360704700BF100C00208E
:1036C000034BD3E90023D00B40EA4340704700BFCF
:1036D000180C0020054B18601C3B1A6842F00102D0
:1036E0001A601A68D207FCD4704700BF2800034054
:1036F00010B5064C236823F001032360FFF784FF15
:10370000236843F00103236010BD00BF10E000E018
:10371000F8B500F021F80A4C0A4D0123A370A86007
:10372000FFF772FFA3784BB1074EB76800F014F8AB
:10373000AB68FF1A38440023B060A370F8BD00BF27
:10374000443900205039002010390020014B1868FE
:10375000704700BF30140020064B1A6859680833C0
:103760001B681B0443EA01231343034A106843EA1E
:103770000060704740500D404C500D4010B504465D
:10378000114B1B68DB07FBD510F094FEFFF7E4FF3D
:10379000231A062BD8BFC41D0C4B220E1A60C4F38B
:1037A000074243F8042CC4F3072243F8082CE2B282
:1037B00043F80C2C10F07AFE054B91201C60BDE8FC
:1037C000104000F0D9B900BF50500D404C500D4092
:1037D000301400202DE9F04101F01EF8FFF7BCFF86
:1037E0000F4C01230F4EA3700F4BB06000259120AA
:1037F0001D6000F0DDF9912000F0CCF902F014F822
:10380000A37853B1094FD7F80880FFF7A5FFB36835
:10381000A570C3EB08084044B860BDE8F08100BF64
:103820004439002050390020301400201039002085
:103830000023094A1068094A9958084207D01A44D7
:10384000D26842F01802106810F0800003D02C33C8
:10385000582BEED10120704728200D40E48821002C
:10386000012870B500F2DA802C2545436C4E74199E
:1038700094F92030002BC0F2D18094F92230002B33
:10388000C0F2CC80674801F09DF8674B7259196807
:1038900000250A431A60596862680A435A609968A9
:1038A000A2680A439A60E36843F47C6343F0080328
:1038B0001D6094F9201094F92120236902EBC102C4
:1038C0001A6094F8220094F82310227D00F088FA00
:1038D00094F8220094F82310082200F077FA94F963
:1038E000223094F923101B0303F1804303F559237D
:1038F00043F48462012303FA01F11068014311606B
:1039000094F9212094F9201003FA02F2090301F13D
:10391000804101F5592141F48461086802430A603D
:10392000E268502142F038021160E26842F0380249
:10393000116841F4D0611160E268022142F0340262
:103940001160E2684FF4407142F030021160E268A9
:1039500042F02401A2690A60E26842F02801E269AB
:103960000A60E268702142F02C02116094F9242070
:10397000AA4220DB94F9251041EAC2022B490A60D1
:1039800094F9250094F924108340090301F1804142
:1039900001F5592141F484610A6813430B602A46FA
:1039A00094F8240094F8251000F010FA204B1A68BF
:1039B00042F400421A6094F82600030621D494F8D9
:1039C0002710012200F00CFA94F92720012000FAB8
:1039D00002F294F926301B0303F1804303F55923C7
:1039E00043F4846319680A431A6094F82600082295
:1039F00094F8271000F0EAF90D4B1A6842F480425F
:103A00001A60E36843F030031A6842F001021A605A
:103A100094F82800BDE8704000F0AEB870BD00BF5B
:103A2000E48821003138200028200D4004410D4059
:103A300030D0004001289CBF014B43F82010704754
:103A40003414002001280AD8054B2C2202FB003038
:103A5000C36843F0180212689206FAD419607047DE
:103A6000E4882100F8B50546FFF776FE2449254A8B
:103A700001238B70244B90602C2000FB0533DC6805
:103A80004FF6BF7644F040031B6844F044009BB2FD
:103A9000066013F0500016460F460ED044F018038F
:103AA0001B68DB061ED4194B53F825301BB1206868
:103AB000C0B29847F2E72368F0E713F4D06F11D053
:103AC00044F030034FF440721A60FF2144F00402C6
:103AD000116044F02C042268206022601A6842F0D1
:103AE00001021A60BB7853B1094CA568FFF734FE98
:103AF000B3680022ED1A024B2844A0609A70F8BD0A
:103B00004439002050390020E4882100341400207A
:103B100010390020014B00221A60704700500D4000
:103B2000014B08221A60704700500D40024BA02242
:103B30001A6050221A60704700500D40084A094B25
:103B40001A60094B80321A60084B80321A60084BA9
:103B500080321A60074B4FF400121A60704700BFA2
:103B600000E100E0481400203C1400204014002034
:103B70004414002008ED00E04209012100F01F007C
:103B800001FA00F0024B1B6843F82200704700BFA7
:103B9000481400204209012100F01F0001FA00F042
:103BA000024B1B6843F82200704700BF3C14002002
:103BB0004209012100F01F0001FA00F0024B1B68CE
:103BC00043F82200704700BF44140020054A064B0A
:103BD0001A60064B1A68064B1340B3F1807FF8D188
:103BE000704700BF0101020100200D4004200D407C
:103BF00000000101024B02EBC10243F822007047B2
:103C00004C140020F8B50A4E07460D4606EB411647
:103C1000002447FA04F3DB07E1B204D556F8243058
:103C20000BB1284698470134082CF2D1F8BD00BFEB
:103C30004C140020F8B500F0EFFDFFF78DFD0E4CA1
:103C400001230E4DA3700E4BA86018680021C0B26E
:103C5000FFF7D8FF0B4AFF231360C2F8FC32A378AA
:103C60004BB1094EB768FFF777FDAB68FF1A3844D0
:103C70000023B060A370F8BD443900205039002003
:103C800018940D401C940D4010390020F8B500F038
:103C9000C3FDFFF761FD0F4C0F4D104B0121A860D4
:103CA000A1701868C0B2FFF7ADFF0D4BFF221A607C
:103CB0004FF47F42C3F8FC22A3784BB1094EB7689A
:103CC000FFF74AFDAB68FF1A38440023B060A370C9
:103CD000F8BD00BF443900205039002018A40D4021
:103CE0001CA40D4010390020F8B500F095FDFFF739
:103CF00033FD0F4C01230F4DA3700F4BA8601868C4
:103D00000221C0B2FFF77EFF0C4BFF221A604FF476
:103D10007F02C3F8FC22A3784BB1094EB768FFF7C6
:103D20001BFDAB68FF1A38440023B060A370F8BDD8
:103D3000443900205039002018B40D401CB40D4007
:103D400010390020F8B500F067FDFFF705FD0F4CB6
:103D500001230F4DA3700F4BA86018680321C0B258
:103D6000FFF750FF0C4BFF221A604FF07F42C3F861
:103D7000FC22A3784BB1094EB768FFF7EDFCAB68A6
:103D8000FF1A38440023B060A370F8BD4439002006
:103D90005039002018C40D401CC40D4010390020BB
:103DA0000248002180220BF045BE00BF4C140020C9
:103DB000034A044B1A60044B803A1A60704700BFF4
:103DC00080400D40D0140020CC140020034B01EBA8
:103DD000C0011B6843F82120704700BFD0140020A9
:103DE000034B01EBC0011B6843F82120704700BF63
:103DF000CC14002070B5FFF7AFFC104E104D01231E
:103E0000B060104C8F20AB70FFF7D2FE8F20FFF711
:103E1000C1FE206818B101F0E9FC00232360AB78F3
:103E200053B1094CA568FFF797FCB3680022ED1A5F
:103E3000034B2844A0609A7070BD00BF5039002029
:103E400044390020D41400201039002072B6BFF38A
:103E50004F8FBFF36F8FEFF3088323E9F00F83F3E6
:103E600008880C490A6812B102F5805200E00A4A3B
:103E700013600A4A13680B600021116013B103F547
:103E8000805300E0044B1B68B3E8F00F83F308880D
:103E900062B67047D8140020E0140020DC14002023
:103EA000044B186800F02200B0F12003584258413A
:103EB000704700BF4C860840024B186800F0400075
:103EC000704700BF4C86084008B50B4B93F90020A3
:103ED000002A09DB094AED2111601160E32111601C
:103EE0001A7862F07F021A70FFF736FC044BD86133
:103EF000044B0120D87108BDBE3500203888084029
:103F0000503900204439002038B505460C46134B83
:103F10001B689B07FBD4124B93F90030002B01DB8D
:103F2000FFF7D2FF0F4BEE221A60691E1A60A21C27
:103F300043F8102C2144022000F0C0FB013C0A4948
:103F400024012143022000F0CBFB022000F0D2FB31
:103F5000022000F0E7FB002038BD00BF4C8608407F
:103F6000BE3500203888084002C001C0044B1A68E2
:103F700010B142F0010201E022F001021A60704724
:103F80000086084009280CD1082A0CD159B1084BE9
:103F9000013953F8042D01F8012F064A9342F8D154
:103FA00003E001207047022070470020704700BFE7
:103FB000C8850840A885084009280CD1082A0CD1DA
:103FC00059B1084B083111F8012D43F8042F064A66
:103FD0009342F8D103E0012070470220704700208F
:103FE000704700BFA4850840C4850840F8B52E4F2F
:103FF0000646386810F0400055D02C4C2268150653
:10400000D3B23DD4042B3BD99D1E8D4238DC2848C9
:104010001946EDB200F05CFD032D1BD07119032091
:10402000013900F053FB6B1E22491B010320194389
:1040300000F056FB032000F05DFB032000F072FB54
:10404000032000F07BFB0028FAD1216824682006B9
:1040500016D506E023683370236873702368B37045
:10406000F3E7493949B289B2042001F029FE03205F
:1040700004F07F0101F024FE3B685A0606D411E0EB
:104080000D4BED221A601A600020F8BD064B1B682C
:104090001B0603D5094801F0A9FB03E0064BED22FE
:1040A0001A601A602846F8BD4C86084028880840E7
:1040B000FE91210002C0010C38880840A0040020B5
:1040C00070B5114B1B689B07FBD4104BED221A6097
:1040D0001A600F4A12680AB1EF221A600D4B0E4C9B
:1040E0001A7802F07F021A70E37953B10B4DEE6932
:1040F000FFF732FB0A4BDB69F61A30440023E86114
:10410000E371012070BD00BF4C860840388808402C
:104110002C860840BE35002044390020103900208C
:104120005039002038B50C46072851D8DFE800F098
:10413000040B191D2450374B01290FD0002949D1F8
:10414000FFF7BEFF48E0A1F10B040F2C42D8FFF7A8
:10415000B7FF04EB8404214B0B341C60FFF7B4FE63
:104160003AE08CB2E2B21E4B02E08CB21D4BE2B2DE
:10417000240A1A605C602FE031F003052AD101F0B7
:104180000100FFF7F3FE184B14F002001A6802D08A
:1041900042F0200211E022F020021A6038BD01F145
:1041A00018031F2B16D80D23104AD80052F83310CD
:1041B0008C4204DC024412790D4B1A600CE013F1BE
:1041C000FF33F1D208E0CCB20A4B49341C6003E063
:1041D000012038BD022038BD002038BD3C86084093
:1041E000C8850840D0850840248608403C892100C5
:1041F000408608405886084038B50C46002974D0DF
:104200000D2874D8DFE800F0070D181A2173314229
:10421000477366686A6D374B1B68003318BF01230C
:1042200060E0354B05221B6803F07F030B3B93FBDB
:10423000F2F30B33DBB255E0304B00E0304B1A6841
:10424000043B1B6843EA02234CE000232D4A0B6029
:10425000126802F001020A602B49086810F0200081
:1042600046D042F0020222603DE0284B196800234C
:10427000C9B2274A02EBC3000079884202D852F83B
:1042800033302FE001330E2BF3D127E0214B1B6895
:104290005BB2493B26E0204B1B689D0606D11F4BB5
:1042A0001A7842F010021A70FFF70EFE1C4B1B68C2
:1042B000D807FBD51B4B1D68184B493D1A78EDB24A
:1042C000D10604D522F010021A70FFF7F9FE6DB284
:1042D000256008E00B2305E01A2303E06FF01703C5
:1042E00000E007232360002038BD022038BD0120F4
:1042F00038BD00BF2C8608403C860840CC8508406D
:10430000D48508400086084024860840408608403E
:104310003C8921005886084048860840BE35002068
:10432000648608406086084010B50F4B1B689C06E9
:1043300006D10E4B1A7842F010021A70FFF7C4FD36
:104340000B4B1B68D807FBD50A4B1C68074BC4F303
:1043500000141A78D10604D522F010021A70FFF763
:10436000AFFE204610BD00BF48860840BE35002085
:10437000648608404C8608402DE9F047404E0146CF
:10438000404800F0A5FB96F90030002B04DAFFF757
:10439000CBFF002870D010E0FFF7DEF90446FFF7EE
:1043A00093FD337843F010033370FFF7D5F96FF0C6
:1043B00009031B1BC342F8D4E9E7334F3B6813F0F2
:1043C000200A59D1314C324DE3796BB1DFF8C88006
:1043D000D8F81C90FFF7C0F9EA6984F807A0C2EB8F
:1043E00009021044C8F81C00FFF7B6F90123A371B5
:1043F000284BE922A8614FF004091A6098463B68EF
:10440000980708D409F1FF3919F0FF0903D00620F5
:10441000FFF760F9F3E73B68990706D4EE23C8F885
:1044200000300127C8F8003004E0386810F00200BE
:10443000FBD10746A37973B1DFF85C80D8F81890F8
:10444000FFF78AF9AB690022C3EB090318440F4B4D
:10445000C8F818009A71FFF77FF90123E3713378E8
:10446000E861DA0605D5064A23F010031370FFF75A
:1044700027FE3846BDE8F0870220BDE8F08700BF80
:10448000BE350020129221004C860840443900209D
:10449000503900203888084010390020F8B52C4DDC
:1044A0002E7816F0010651D12A4B01241C605C6065
:1044B0009C60A3F59323A3F51473F8221A600922D4
:1044C000C3F89021152270331A600B2204231A605E
:1044D000214B40221A601A687F2742F020021A609E
:1044E000D52243F81C6CDF62DA61FFF7E9FD1B4B54
:1044F00056221A60FFF7E8FC194B8D201A6842F02B
:1045000004021A60FFF738FB164B8E201F60FFF77E
:1045100033FB022000F0FAF81349022000F0D6F82D
:10452000032000F0F3F803200F4900F0C7F83146EC
:104530000E4801F043F92B7823432B70FFF70CF959
:104540000B4BD8610B4B2046DC71F8BD0020F8BD49
:10455000BE350020A8200D40248608403C86084037
:104560008C8608409486084028880840A0040020D3
:10457000503900204439002010B50388044613B395
:1045800040F2AE32934203D000230380032010BDDB
:1045900082291BD101F036FB01F09AFA8021FFF746
:1045A00025FD002805DD80B201F08CFA084B1B695F
:1045B0009847084B1A78520605D500221A70FFF763
:1045C0007FFDFFF76BFF40F2AE332380012010BD6B
:1045D0001C8A2100BE3500202DE9F041FFF7BCF810
:1045E0000C4D0D4C0123A8600C48A37001F0FEF89F
:1045F0000B4B00261E60A37853B10A4FD7F80880F2
:10460000FFF7AAF8AB68A670C3EB08084044B8608F
:10461000BDE8F0815039002044390020A00400207A
:104620003488084010390020F8B5FFF795F8114993
:10463000114B01228A70114A986010681E460428A6
:104640000D46134604D00E4A117841F04001117016
:1046500000241C600B4801F0C9F8AB784BB10A4D3F
:10466000AF68FFF779F8B368FF1A024B3844A860C7
:104670009C70F8BD44390020503900202C88084037
:10468000BE350020A00400201039002010B5094CD0
:104690000021204640220BF0CDF9074B01221A6081
:1046A0002E205C60FFF768FABDE810402F20FFF76E
:1046B00063BA00BF0000002004F00F40032802D8B6
:1046C000014B00011950704700000020032803D857
:1046D000024B03EB00104160704700BF0000002058
:1046E000032803D8024B03EB00108160704700BF22
:1046F00000000020032806D8012101FA00F0024B37
:104700001A6810431860704728F00F40032806D835
:10471000012101FA00F0024B1A681043186070473B
:1047200020F00F40032806D8012101FA00F0024BC7
:104730001A6810431860704714F00F40032806D819
:10474000044B03EB0010806800F007007047002066
:10475000704700BF00000020024B4FF0FF321A608C
:10476000704700BF04F50F40014B01221A607047EB
:104770004CF00F40094B1A68194612F4801FF9D10A
:10478000043B1A6822F480321A600A68D203FCD40F
:104790001A6842F400321A60704700BF04200D40CE
:1047A000F8B5194C194D23784BB1194E3768FEF7FF
:1047B000D3FF2B68FB1A1844002330602370FEF7E8
:1047C000CBFF01236370134B68601968022000F06F
:1047D00019FE30BF022000F0F9FD0E4B0A4C1860A4
:1047E000FEF7BAFF0123094E2370637830604BB1A6
:1047F000074D6F68FEF7B0FF7368FF1A3844002357
:1048000068606370F8BD00BF443900205039002053
:1048100010390020E41400202DE9F041164B1A68ED
:104820001C4612F0030F25D0144A13685901FBD41B
:1048300013685B01FCD50025FEF75AFFFFF79AFFCE
:104840002560022000F0C2FD0D4B0E4C1860FEF7F3
:1048500083FF01230C4F23706378386053B10B4EF4
:10486000D6F80480FEF778FF7B686570C3EB080814
:1048700040447060BDE8F08158200D4004200D4098
:10488000E414002044390020503900201039002061
:104890002DE9F843414B1C6814F03F0413D1404B01
:1048A000E35823B1984770B10434102CF7D13D4B35
:1048B0001A781E463AB1FEF749FF0446FEF74CFF50
:1048C000201A092803D8BDE8F843FFF769BF002C78
:1048D000F9D0354B1A6822F400321A60334A116855
:1048E000C902FBD4196841F4803119601368DB03F5
:1048F000FCD5FEF731FF201A092803D8BDE8F8439C
:10490000FFF738BF63282A4D02D93378022B00D035
:104910000123284E2B60284C3168022000F072FDE4
:104920002378B046254E5BB1254FD7F80090FEF7AF
:1049300013FF3368C3EB0903184400233860237066
:10494000FEF70AFF01237060637000F001FFE0B121
:104950000027FFF70FFF2F60022000F037FDC8F897
:104960000000FEF7F9FE01232370637830609BB1ED
:10497000134C6568FEF7F0FE104B5B68ED1A0E4BAA
:10498000284460605F70BDE8F883FEF7DFFE002812
:10499000DED030BFBDE8F883BDE8F8834886084024
:1049A000E8140020BF35002000200D4004200D40F9
:1049B00058200D40E41400204439002050390020D4
:1049C000103900200023064A52F82310814206D0F5
:1049D00011B942F8230070470133042BF3D170471B
:1049E000E8140020054B00221A60054B1A6842F0BB
:1049F00004021A60034B01221A70704758200D40C0
:104A000010ED00E0BF35002030B5184B1B783BB9E6
:104A1000174A1278122A03D1164A12784B2A01D06B
:104A2000002317E04A08934207DA02F520142734DE
:104A3000E41A2478C4540133F5E70023934208DADA
:104A400001F520142734E41A25788418E55401333D
:104A5000F4E730BD8B4207DA01F520122732D21A73
:104A60001278C2540133F5E730BD00BF2B00280097
:104A70002A0028002900280070B5FEF76DFE104EB0
:104A8000104D0123B060104C9020AB70FFF790F8F0
:104A90009020FFF77FF8206818B100F0A7FE0023F0
:104AA0002360AB7853B1094CA568FEF755FEB36897
:104AB0000022ED1A034B2844A0609A7070BD00BF1D
:104AC0005039002044390020F8140020103900200B
:104AD0000FB407B504AA52F8041B0448019200F071
:104AE0004BF803B05DF804EB04B07047B00400204D
:104AF0001FB5084C8DE803000294114600AC1A461D
:104B000002A8039400F038F8009B00221A7004B049
:104B100010BD00BF314521000EB43FB5094B07AAB7
:104B200052F8041B0190049304A801AB039205936F
:104B300000F022F8019B00221A7006B05DF804EB29
:104B400003B070477345210038B505460C46102C5C
:104B500007D92B68686807491022984748B9103C64
:104B6000F5E72CB12B68686802492246984738BDA2
:104B7000204638BD709221002DE9F04F95B00746D0
:104B800005910D924FF00008059C2378002B00F052
:104B9000538323461C4613F8012B1AB90598844207
:104BA00003D10CE0252AF5D1F8E705993B68651A91
:104BB00078682A469847002840F02183A844237843
:104BC000002B00F039836378002B00F0358301342B
:104BD0000026224614F8013B2B2B11D006D8202B9F
:104BE00011D0232B12D146F00806F2E72D2B04D06A
:104BF000302B0BD146F01006EBE746F00106E8E754
:104C000046F00606E5E746F00206E2E7A3F13101C9
:104C1000082910D813464FF0000C1A4613F8011B50
:104C2000A1F13000092815D84FF00A0A0AFB0C1C24
:104C3000ACF1300CF1E72A2B0AD10D9B0132191D82
:104C40001B680D91002BB8BF46F001069C4601E0A1
:104C50004FF0000C13782E2B1FD15178531CA1F16B
:104C60003000092810D819464FF000090A780B4681
:104C7000A2F13000092801F1010111D80A2303FB38
:104C80000929A9F13009F1E72A2907D1931C0D9AC6
:104C9000111D0D91D2F8009002E013464FF0FF393C
:104CA0001A786C2A09D15A786C2A02D146F080060B
:104CB0000AE0013346F060060BE0682A09D15A7811
:104CC000682A03D146F02006023302E0013346F0A1
:104CD00040061A78642A3CD01FD8462A48D00DD8FE
:104CE000252A5AD003D8002A00F0A68257E0412A8C
:104CF0004AD0452A08BF46F4424650E0582A31D0EF
:104D000004D8472A08BF46F4A13648E0612A38D0C3
:104D1000632A08BF46F4A06641E06E2A3AD007D85D
:104D2000662A22D027D3672A28D0692A11D036E0F4
:104D3000732A2CD006D86F2A11D0702A08BF46F4E7
:104D400040762CE0752A07D0782A08BF46F4C8566A
:104D500025E046F4245622E046F410661FE046F4AF
:104D600088561CE046F4B24619E046F4007616E098
:104D700046F4844613E046F4024610E046F48136D9
:104D80000DE046F4C1360AE046F4E13607E046F4A9
:104D9000806604E046F4E06601E046F4C066013354
:104DA000059306F4E063B3F5806F00F0A58114D895
:104DB000B3F5807F28D0B3F5407F7FF4E5AE0D9B3F
:104DC000A649A7481A1D16F4804F0D9218BF084631
:104DD0001A680DF14B010023B6E1B3F5C06F08D09E
:104DE000B3F5E06F00F02182B3F5A06F7FF4CCAE95
:104DF000EFE13B6878689B4901229847002840F022
:104E0000FE8108F10108BFE6B9F1000FACBF26F042
:104E100010064FF0010916F40054049406F0E00364
:104E200037D0402B17D008D8DBB1202B2AD10D9BCF
:104E30001A1D0D9293F9002017E0602B11D0802BE2
:104E400020D10D9B073323F0070303F108020D92D5
:104E5000D3E900230AE00D9B1A1D0D92B3F900203F
:104E600003E00D9B1A1D0D921A68D317002A73F1E7
:104E7000000009DA504263EB4301CDE902014FF033
:104E8000010A34E000220023CDE902234FF0000A9A
:104E90002DE0402B16D007D8D3B1202B21D10D9B6C
:104EA0001A1D0D92187811E0602B11D0802B18D1AB
:104EB0000D9B073323F0070303F108020D92D3E99A
:104EC00000010BE00D9B1A1D18880D92002105E0D2
:104ED0000D9B1A1D0D921B681846F7E7CDE90201DC
:104EE000D4E700220023CDE902234FF0000A06F4A4
:104EF000C053B3F5805F0BD0B3F5C05F3CD0B3F5C2
:104F0000006F5AD10DF14E040C94DDE9024504E026
:104F10000DF14E01DDE902231CE054EA0501DDF844
:104F200030B045D0204629460A220023CDF804C0DF
:104F30000EF0B6F80C98303200F8012D0C9029468E
:104F400020460A2200230EF0ABF8DDF804C0044628
:104F50000D46E2E752EA03008B4629D002F0070033
:104F6000D408303001F8010D44EA4370DC080690A3
:104F70000794DDE90623EDE7384B394816F4804FF6
:104F80000DF14E0118BF1846DDE9022352EA030471
:104F90008B460DD002F00F04045D01F8014D140999
:104FA00044EA037408941C090994DDE90823EDE739
:104FB0000DF14E05CBEB050502E00DF14E0B002582
:104FC00041F60803A94506EA030341F208028CBF33
:104FD000C5EB09094FF00009934204D1B9F1000F64
:104FE00008BF4FF0010941F60802934209EB0501A1
:104FF0000CD1DDE90223134308D01B4B1B4A16F4E6
:10500000804F4FF0020418BF1A4601E000242246E8
:10501000049890B1BAF1000F0DD106F00603022BEF
:1050200006D0062B124B08BF012408BF1A4604E025
:105030000124104A01E0104A012401EB040AD4457E
:105040008CBFCAEB0C0A4FF0000A16F00103029362
:105050001DD1F10612D5D1449A4618E03B922100A9
:105060004C9221006E922100609221005D922100FD
:1050700065922100B68F2100639221003846514687
:105080000192FFF761FD019A002840F0B8803CB121
:1050900011463B68786822469847002840F0AF8068
:1050A0004E46102E3B6808D978686549102298470B
:1050B000002840F0A480103EF3E736B178686049DC
:1050C00032469847002840F09A803B6878685946F5
:1050D0002A469847002840F09280A8444444A144BE
:1050E000029C34B138465146FFF72EFD002840F0AF
:1050F000868009EB0A0847E50D9B1D681A1D0D9275
:105100003DB12B461C4622780133002AFAD1641B9C
:1051100001E04C4D0624B9F1000F02DB4C4528BFDD
:105120004C46A4458CBFC4EB0C0A4FF0000A16F0A5
:10513000010605D138465146FFF706FD00285ED12D
:105140003B687868294638E052EA03040D460DD0E2
:1051500002F00F04045D01F8014D140944EA0374E0
:105160000A941C090B94DDE90A23EDE70DF14B04C9
:10517000641A04D130234D1E01F8013C0124782328
:105180000334A44505F8013C4FF0300305F8023C18
:1051900088BFC4EB0C0A4FF0230398BF4FF0000AFE
:1051A00016F0010605F8033C04D138465146FFF7D6
:1051B000CBFC20BB3B687868E91E22469847F0B9D3
:1051C000A044002E2FD038465146FFF7BDFC50B307
:1051D00015E00D9BBCF1010F03F104021B688CBFAD
:1051E0000CF1FF3A4FF0000A16F001060D928DF80F
:1051F000383008D138465146FFF7A6FC10B14FF0C1
:10520000FF301AE0D0443B6878680EA90122984725
:105210000028F4D12EB138465146FFF795FC0028FE
:10522000EDD10AF1010AD044AEE40D9B1A1D1B68B2
:105230000D92C3F80080A7E4404615B0BDE8F08F9A
:105240008092210067922100F8B503880546164632
:105250002BB14A2B15D0002303800320F8BD17483B
:105260000FF0EBF904462CB1201DA1680FF096F960
:105270002468F8E7124B01221A704A232B80012080
:10528000F8BD8829FBD10D480FF0D7F90446002C52
:10529000F3D0231D9E420ED1084821460FF0D6F9C7
:1052A000084B62691F681A60A2691E460AB1E0696C
:1052B00090473760E1E72468E9E700BFFC1400206D
:1052C000C03500201015002010B5064B00240648FC
:1052D0001C700FF0AFF921460448BDE8104000F003
:1052E0006DBA00BFC0350020FC140020B8040020B7
:1052F00070B504460C4DE3610C4B2E681B7866615B
:10530000A26133B10A4B201D2B600FF047F92E60CC
:1053100000E0A160214607480FF098F921460548B2
:10532000BDE870400FF0A6B910150020C035002070
:10533000B8040020FC14002070B50B4B04461B7809
:105340003BB10A4D0A4B2E6804302B600FF02FF949
:105350002E60214607480FF079F921460548BDE83F
:1053600070400FF087B900BFC03500201015002035
:10537000B8040020FC14002010B5084B04461B782C
:105380001BB1043000F0DCF801E0C360036121468A
:105390000348BDE810400FF059B900BFC0350020E8
:1053A000FC14002000230649002241F8232005496F
:1053B00041F8232004495A5401330C2BF3D1704790
:1053C00050390020103900204439002038B50A4BEC
:1053D00004461B5C094D63B1FEF7BEF9084B55F856
:1053E000241053F8242043F824008A1A024445F874
:1053F000242055F8240038BD4439002010390020FD
:1054000050390020014B43F820107047103900201C
:1054100010B50D4C236813B90C4A136010BDFEF78C
:1054200045F9236893E806000A44121A9B683BB1C9
:1054300093E812002144091A8A4228BF0A46F5E778
:10544000024B1044186010BD001500200415002008
:10545000014800F0CBB900BFC8040020F8B50388AC
:1054600005462BB1592B09D0002303800320F8BD3A
:105470001E4A136059232B800120F8BD872920D0B4
:105480008229F7D1194F00263C68002CF2D0204623
:105490000FF0C2F890B1E0688821224600F062F96E
:1054A00050B9E060A3680EB1B36000E03B60002338
:1054B000A360FFF7ADFFE5E7FFF7CAFF2646A46844
:1054C000E3E70A490B680BB90B60D3E7D868904251
:1054D00001D19B68F7E70B6099680029CAD0C868BA
:1054E00090420ABF89680B469960F5E700150020D5
:1054F00010B50446FFF7ACFFE3680B4A4BB11368E5
:105500003BB1A34203D1094A1268DA6007E09B6805
:10551000F6E7064B1B68E36013681460A360BDE800
:105520001040FFF775BF00BF0015002010150020C8
:10553000024B1868003018BF01207047001500208A
:1055400010B50B4A04461368984206D1836813606D
:1055500008E09A68A24203D01346002BF9D103E079
:10556000A2689A60FFF754FF0023A360E36010BDB8
:105570000015002038B5836804460D469BB10A48E3
:1055800004600220A07304F10C009847023801283F
:1055900001D9832D05D120462146BDE8384000F0D1
:1055A00005B80123A37338BD101500202DE9F84379
:1055B0001D4A1E4E15683768044689462B4690469C
:1055C000A34204D00BB11B68FAE7BDE8F88344B3EB
:1055D000A37BABB10023A37345B1AC4204D02846F2
:1055E000872122460EF0FEFF2D68F5E7A3683BB148
:1055F0004C4505D0346004F10C0083212A469847BD
:10560000D8F800309C4209D12268074B00E022689C
:105610001A6005E01A68A242F9D01346002BF9D1AE
:105620003760BDE8F88300BF181500201015002072
:1056300010B5094B00221A70084B1C685CB1E37B63
:105640003BB101230022A373E27320468221FFF7BE
:1056500091FF2468F2E710BDC33500201815002023
:10566000024B1878421C1A70704700BFC6350020E4
:10567000064B8A221A70064A00231370054A1370DB
:10568000054A1360054A1360704700BFC635002005
:10569000C1350020C235002018150020101500204B
:1056A0002DE9F843214E33780BB1FFF7C1FF204DB0
:1056B0002C78002C35D0DFF890C00C239CF80080AB
:1056C0001C4A03FB08F3D018D15C1B4F42681B4BEC
:1056D0008068DFF8789008F1010808F01F08013CA5
:1056E0008CF8008039701A60C9F800002C70984658
:1056F00088B9134C134B1B68236023688BB1337834
:105700000BB1FFF795FF20683978D8F800200EF02C
:1057100069FF2368EFE7812904BF012383730EF03B
:1057200061FF337828781844BDE8F883C33500203A
:10573000C23500201C150020C43500200C150020A7
:105740001415002018150020C13500200815002070
:10575000024A034B10781B7818447047C23500206A
:10576000C3350020F0B50C4C2378202B11D00B4D05
:105770000B4F2E780B4D1E4406F01F062E700C2585
:105780006E430133BD19B9552370A8606A600020CB
:10579000F0BD0120F0BD00BFC2350020C1350020A2
:1057A0001C150020C535002038B5034C25680EF0C7
:1057B00019FF256038BD00BF1015002030B50A4D17
:1057C0000A462C68234683420DD00BB11B68FAE7CA
:1057D00048B1046001212860817383818121BDE883
:1057E0003040FFF7E1BF30BD1815002038B1837B92
:1057F000013B012B03D8024A0123C3731370704786
:10580000C335002010B50246064853600468029B69
:1058100011609360026014B90846FDF7AFFF0020E5
:1058200010BD00BF9C16002010B5084C206858B170
:1058300000232360816843689847236823B1186870
:10584000BDE81040FDF79ABF10BD00BF9C160020B8
:1058500038B505880446672D09D0792D2ED0002D46
:1058600032D1FFF7FDFE1B4B18701B4B1D601B4810
:105870000EF03CFF431C01D167231DE00A28164BA4
:1058800007D01A687E2AF2DC511C1960144B985418
:10589000EDE7196800254A1C1A60114A0D4B555452
:1058A00028461978FFF75EFF0E4B852118682A46B7
:1058B000FFF758FF20B97923238009E0852907D114
:1058C000054B00221A60D2E700230380032038BD75
:1058D000012038BDCF440020A0160020A4160020CF
:1058E00047360020101500200D2810B5014615D0B0
:1058F0000B4C23782BB90B480EF0E5FE48B9012379
:1059000006E00A2805D107480EF0DDFE08B10023A5
:1059100023700548FFF76AFF012010BD002010BD6D
:10592000C7360020A4160020D804002008B505487A
:10593000054980220EF0C0FEBDE808400348002162
:10594000FFF73CBFA4160020C7350020D804002074
:1059500003460A4601481946FFF7BAB8B992210032
:10596000064B1A68143342F0040243F8142C044A1C
:105970001B68106843EA002080B2704700700D4039
:1059800018700D40194B1A6822F00C021A60A3F52A
:105990009E43583B01221A601A68012AFCD1144B1D
:1059A00008221A60E322C3F8142203F5057319468E
:1059B000104B1B68DB07FBD500231A460E4801324B
:1059C0000068102A00F0010043EA00034FEA430395
:1059D0009BB2F3D1002BF0D0084A180A03F0FE0363
:1059E00010601360EF230B60704700BF00700D4024
:1059F00024860840648608409C86084014700D4048
:105A000008B5064B1B689847054B5B689847054BE4
:105A10005B689847044B5B68984708BDAC892100D8
:105A20001C8A2100F0892100E489210010B5054B72
:105A300005491B78C3F130041944224609F01EFFC2
:105A4000204610BDC8360020062E0020F8B50E4BAB
:105A50000E4A1B781688C3F13005AC19802C074616
:105A60000EDC0B492A46194409F008FF094A0A4B83
:105A700011681B8878191944324609F0FFFE00E0CE
:105A800000242046F8BD00BFC8360020042E0020A8
:105A9000062E0020AC160020B82E002010B5074BB3
:105AA0001A88824208DB064980B20C880444101A26
:105AB00018800C80012010BD002010BD042E002095
:105AC000B82E0020014B1880704700BF042E002024
:105AD000024B1888024B1844704700BFB82E0020B4
